{
  "contractName": "NftMarket",
  "abi": [
    {
      "inputs": [],
      "stateMutability": "nonpayable",
      "type": "constructor"
    },
    {
      "anonymous": false,
      "inputs": [
        {
          "indexed": true,
          "internalType": "address",
          "name": "owner",
          "type": "address"
        },
        {
          "indexed": true,
          "internalType": "address",
          "name": "approved",
          "type": "address"
        },
        {
          "indexed": true,
          "internalType": "uint256",
          "name": "tokenId",
          "type": "uint256"
        }
      ],
      "name": "Approval",
      "type": "event"
    },
    {
      "anonymous": false,
      "inputs": [
        {
          "indexed": true,
          "internalType": "address",
          "name": "owner",
          "type": "address"
        },
        {
          "indexed": true,
          "internalType": "address",
          "name": "operator",
          "type": "address"
        },
        {
          "indexed": false,
          "internalType": "bool",
          "name": "approved",
          "type": "bool"
        }
      ],
      "name": "ApprovalForAll",
      "type": "event"
    },
    {
      "anonymous": false,
      "inputs": [
        {
          "indexed": false,
          "internalType": "uint256",
          "name": "tokenId",
          "type": "uint256"
        },
        {
          "indexed": false,
          "internalType": "uint256",
          "name": "price",
          "type": "uint256"
        },
        {
          "indexed": false,
          "internalType": "address",
          "name": "creator",
          "type": "address"
        },
        {
          "indexed": false,
          "internalType": "bool",
          "name": "isListed",
          "type": "bool"
        }
      ],
      "name": "NftItemCreated",
      "type": "event"
    },
    {
      "anonymous": false,
      "inputs": [
        {
          "indexed": true,
          "internalType": "address",
          "name": "previousOwner",
          "type": "address"
        },
        {
          "indexed": true,
          "internalType": "address",
          "name": "newOwner",
          "type": "address"
        }
      ],
      "name": "OwnershipTransferred",
      "type": "event"
    },
    {
      "anonymous": false,
      "inputs": [
        {
          "indexed": true,
          "internalType": "address",
          "name": "from",
          "type": "address"
        },
        {
          "indexed": true,
          "internalType": "address",
          "name": "to",
          "type": "address"
        },
        {
          "indexed": true,
          "internalType": "uint256",
          "name": "tokenId",
          "type": "uint256"
        }
      ],
      "name": "Transfer",
      "type": "event"
    },
    {
      "inputs": [
        {
          "internalType": "address",
          "name": "to",
          "type": "address"
        },
        {
          "internalType": "uint256",
          "name": "tokenId",
          "type": "uint256"
        }
      ],
      "name": "approve",
      "outputs": [],
      "stateMutability": "nonpayable",
      "type": "function"
    },
    {
      "inputs": [
        {
          "internalType": "address",
          "name": "owner",
          "type": "address"
        }
      ],
      "name": "balanceOf",
      "outputs": [
        {
          "internalType": "uint256",
          "name": "",
          "type": "uint256"
        }
      ],
      "stateMutability": "view",
      "type": "function",
      "constant": true
    },
    {
      "inputs": [
        {
          "internalType": "uint256",
          "name": "tokenId",
          "type": "uint256"
        }
      ],
      "name": "getApproved",
      "outputs": [
        {
          "internalType": "address",
          "name": "",
          "type": "address"
        }
      ],
      "stateMutability": "view",
      "type": "function",
      "constant": true
    },
    {
      "inputs": [
        {
          "internalType": "address",
          "name": "owner",
          "type": "address"
        },
        {
          "internalType": "address",
          "name": "operator",
          "type": "address"
        }
      ],
      "name": "isApprovedForAll",
      "outputs": [
        {
          "internalType": "bool",
          "name": "",
          "type": "bool"
        }
      ],
      "stateMutability": "view",
      "type": "function",
      "constant": true
    },
    {
      "inputs": [],
      "name": "listingPrice",
      "outputs": [
        {
          "internalType": "uint256",
          "name": "",
          "type": "uint256"
        }
      ],
      "stateMutability": "view",
      "type": "function",
      "constant": true
    },
    {
      "inputs": [],
      "name": "name",
      "outputs": [
        {
          "internalType": "string",
          "name": "",
          "type": "string"
        }
      ],
      "stateMutability": "view",
      "type": "function",
      "constant": true
    },
    {
      "inputs": [],
      "name": "owner",
      "outputs": [
        {
          "internalType": "address",
          "name": "",
          "type": "address"
        }
      ],
      "stateMutability": "view",
      "type": "function",
      "constant": true
    },
    {
      "inputs": [
        {
          "internalType": "uint256",
          "name": "tokenId",
          "type": "uint256"
        }
      ],
      "name": "ownerOf",
      "outputs": [
        {
          "internalType": "address",
          "name": "",
          "type": "address"
        }
      ],
      "stateMutability": "view",
      "type": "function",
      "constant": true
    },
    {
      "inputs": [],
      "name": "renounceOwnership",
      "outputs": [],
      "stateMutability": "nonpayable",
      "type": "function"
    },
    {
      "inputs": [
        {
          "internalType": "address",
          "name": "from",
          "type": "address"
        },
        {
          "internalType": "address",
          "name": "to",
          "type": "address"
        },
        {
          "internalType": "uint256",
          "name": "tokenId",
          "type": "uint256"
        }
      ],
      "name": "safeTransferFrom",
      "outputs": [],
      "stateMutability": "nonpayable",
      "type": "function"
    },
    {
      "inputs": [
        {
          "internalType": "address",
          "name": "from",
          "type": "address"
        },
        {
          "internalType": "address",
          "name": "to",
          "type": "address"
        },
        {
          "internalType": "uint256",
          "name": "tokenId",
          "type": "uint256"
        },
        {
          "internalType": "bytes",
          "name": "_data",
          "type": "bytes"
        }
      ],
      "name": "safeTransferFrom",
      "outputs": [],
      "stateMutability": "nonpayable",
      "type": "function"
    },
    {
      "inputs": [
        {
          "internalType": "address",
          "name": "operator",
          "type": "address"
        },
        {
          "internalType": "bool",
          "name": "approved",
          "type": "bool"
        }
      ],
      "name": "setApprovalForAll",
      "outputs": [],
      "stateMutability": "nonpayable",
      "type": "function"
    },
    {
      "inputs": [
        {
          "internalType": "bytes4",
          "name": "interfaceId",
          "type": "bytes4"
        }
      ],
      "name": "supportsInterface",
      "outputs": [
        {
          "internalType": "bool",
          "name": "",
          "type": "bool"
        }
      ],
      "stateMutability": "view",
      "type": "function",
      "constant": true
    },
    {
      "inputs": [],
      "name": "symbol",
      "outputs": [
        {
          "internalType": "string",
          "name": "",
          "type": "string"
        }
      ],
      "stateMutability": "view",
      "type": "function",
      "constant": true
    },
    {
      "inputs": [
        {
          "internalType": "uint256",
          "name": "tokenId",
          "type": "uint256"
        }
      ],
      "name": "tokenURI",
      "outputs": [
        {
          "internalType": "string",
          "name": "",
          "type": "string"
        }
      ],
      "stateMutability": "view",
      "type": "function",
      "constant": true
    },
    {
      "inputs": [
        {
          "internalType": "address",
          "name": "from",
          "type": "address"
        },
        {
          "internalType": "address",
          "name": "to",
          "type": "address"
        },
        {
          "internalType": "uint256",
          "name": "tokenId",
          "type": "uint256"
        }
      ],
      "name": "transferFrom",
      "outputs": [],
      "stateMutability": "nonpayable",
      "type": "function"
    },
    {
      "inputs": [
        {
          "internalType": "address",
          "name": "newOwner",
          "type": "address"
        }
      ],
      "name": "transferOwnership",
      "outputs": [],
      "stateMutability": "nonpayable",
      "type": "function"
    },
    {
      "inputs": [
        {
          "internalType": "uint256",
          "name": "newPrice",
          "type": "uint256"
        }
      ],
      "name": "setListingPrice",
      "outputs": [],
      "stateMutability": "nonpayable",
      "type": "function"
    },
    {
      "inputs": [
        {
          "internalType": "uint256",
          "name": "tokenId",
          "type": "uint256"
        }
      ],
      "name": "buyNft",
      "outputs": [],
      "stateMutability": "payable",
      "type": "function",
      "payable": true
    },
    {
      "inputs": [
        {
          "internalType": "uint256",
          "name": "tokenId",
          "type": "uint256"
        },
        {
          "internalType": "uint256",
          "name": "newPrice",
          "type": "uint256"
        }
      ],
      "name": "placeNftOnSale",
      "outputs": [],
      "stateMutability": "payable",
      "type": "function",
      "payable": true
    },
    {
      "inputs": [
        {
          "internalType": "uint256",
          "name": "tokenId",
          "type": "uint256"
        }
      ],
      "name": "getNftItem",
      "outputs": [
        {
          "components": [
            {
              "internalType": "uint256",
              "name": "tokenId",
              "type": "uint256"
            },
            {
              "internalType": "uint256",
              "name": "price",
              "type": "uint256"
            },
            {
              "internalType": "address",
              "name": "creator",
              "type": "address"
            },
            {
              "internalType": "bool",
              "name": "isListed",
              "type": "bool"
            }
          ],
          "internalType": "struct NftMarket.NftItem",
          "name": "",
          "type": "tuple"
        }
      ],
      "stateMutability": "view",
      "type": "function",
      "constant": true
    },
    {
      "inputs": [],
      "name": "listedItemsCount",
      "outputs": [
        {
          "internalType": "uint256",
          "name": "",
          "type": "uint256"
        }
      ],
      "stateMutability": "view",
      "type": "function",
      "constant": true
    },
    {
      "inputs": [
        {
          "internalType": "string",
          "name": "tokenURI",
          "type": "string"
        }
      ],
      "name": "tokenURIExists",
      "outputs": [
        {
          "internalType": "bool",
          "name": "",
          "type": "bool"
        }
      ],
      "stateMutability": "view",
      "type": "function",
      "constant": true
    },
    {
      "inputs": [],
      "name": "totalSupply",
      "outputs": [
        {
          "internalType": "uint256",
          "name": "",
          "type": "uint256"
        }
      ],
      "stateMutability": "view",
      "type": "function",
      "constant": true
    },
    {
      "inputs": [
        {
          "internalType": "uint256",
          "name": "index",
          "type": "uint256"
        }
      ],
      "name": "tokenByIndex",
      "outputs": [
        {
          "internalType": "uint256",
          "name": "",
          "type": "uint256"
        }
      ],
      "stateMutability": "view",
      "type": "function",
      "constant": true
    },
    {
      "inputs": [
        {
          "internalType": "address",
          "name": "owner",
          "type": "address"
        },
        {
          "internalType": "uint256",
          "name": "index",
          "type": "uint256"
        }
      ],
      "name": "tokenOfOwnerByIndex",
      "outputs": [
        {
          "internalType": "uint256",
          "name": "",
          "type": "uint256"
        }
      ],
      "stateMutability": "view",
      "type": "function",
      "constant": true
    },
    {
      "inputs": [],
      "name": "getAllNftOnSale",
      "outputs": [
        {
          "components": [
            {
              "internalType": "uint256",
              "name": "tokenId",
              "type": "uint256"
            },
            {
              "internalType": "uint256",
              "name": "price",
              "type": "uint256"
            },
            {
              "internalType": "address",
              "name": "creator",
              "type": "address"
            },
            {
              "internalType": "bool",
              "name": "isListed",
              "type": "bool"
            }
          ],
          "internalType": "struct NftMarket.NftItem[]",
          "name": "",
          "type": "tuple[]"
        }
      ],
      "stateMutability": "view",
      "type": "function",
      "constant": true
    },
    {
      "inputs": [],
      "name": "getOwnedNfts",
      "outputs": [
        {
          "components": [
            {
              "internalType": "uint256",
              "name": "tokenId",
              "type": "uint256"
            },
            {
              "internalType": "uint256",
              "name": "price",
              "type": "uint256"
            },
            {
              "internalType": "address",
              "name": "creator",
              "type": "address"
            },
            {
              "internalType": "bool",
              "name": "isListed",
              "type": "bool"
            }
          ],
          "internalType": "struct NftMarket.NftItem[]",
          "name": "",
          "type": "tuple[]"
        }
      ],
      "stateMutability": "view",
      "type": "function",
      "constant": true
    },
    {
      "inputs": [
        {
          "internalType": "string",
          "name": "tokenURI",
          "type": "string"
        },
        {
          "internalType": "uint256",
          "name": "price",
          "type": "uint256"
        }
      ],
      "name": "mintToken",
      "outputs": [
        {
          "internalType": "uint256",
          "name": "",
          "type": "uint256"
        }
      ],
      "stateMutability": "payable",
      "type": "function",
      "payable": true
    }
  ],
  "bytecode": "0x60806040526658d15e176280006008553480156200001c57600080fd5b506040518060400160405280600c81526020017f4372656174757265734e465400000000000000000000000000000000000000008152506040518060400160405280600481526020017f434e4654000000000000000000000000000000000000000000000000000000008152508160009080519060200190620000a1929190620001b1565b508060019080519060200190620000ba929190620001b1565b505050620000dd620000d1620000e360201b60201c565b620000eb60201b60201c565b620002c5565b600033905090565b6000600760009054906101000a900473ffffffffffffffffffffffffffffffffffffffff16905081600760006101000a81548173ffffffffffffffffffffffffffffffffffffffff021916908373ffffffffffffffffffffffffffffffffffffffff1602179055508173ffffffffffffffffffffffffffffffffffffffff168173ffffffffffffffffffffffffffffffffffffffff167f8be0079c531659141344cd1fd0a4f28419497f9722a3daafe3b4186f6b6457e060405160405180910390a35050565b828054620001bf9062000290565b90600052602060002090601f016020900481019282620001e357600085556200022f565b82601f10620001fe57805160ff19168380011785556200022f565b828001600101855582156200022f579182015b828111156200022e57825182559160200191906001019062000211565b5b5090506200023e919062000242565b5090565b5b808211156200025d57600081600090555060010162000243565b5090565b7f4e487b7100000000000000000000000000000000000000000000000000000000600052602260045260246000fd5b60006002820490506001821680620002a957607f821691505b602082108103620002bf57620002be62000261565b5b50919050565b614a2d80620002d56000396000f3fe6080604052600436106101c25760003560e01c806370a08231116100f7578063b88d4fde11610095578063ccb4918d11610064578063ccb4918d14610663578063e985e9c51461068e578063eb3d009c146106cb578063f2fde38b146106f6576101c2565b8063b88d4fde146105a2578063c046372c146105cb578063c78f19f9146105fb578063c87b56dd14610626576101c2565b80637c726b69116100d15780637c726b69146104fa5780638da5cb5b1461052357806395d89b411461054e578063a22cb46514610579576101c2565b806370a082311461047b57806370cbcb43146104b8578063715018a6146104e3576101c2565b8063243adbdd1161016457806343d32ae71161013e57806343d32ae7146103875780634f6ccce7146103c45780636352211e146104015780636f1a0af51461043e576101c2565b8063243adbdd146103055780632f745c591461032157806342842e0e1461035e576101c2565b8063095ea7b3116101a0578063095ea7b31461026c57806318160ddd1461029557806321f422e5146102c057806323b872dd146102dc576101c2565b806301ffc9a7146101c757806306fdde0314610204578063081812fc1461022f575b600080fd5b3480156101d357600080fd5b506101ee60048036038101906101e99190612fca565b61071f565b6040516101fb9190613012565b60405180910390f35b34801561021057600080fd5b50610219610801565b60405161022691906130c6565b60405180910390f35b34801561023b57600080fd5b506102566004803603810190610251919061311e565b610893565b604051610263919061318c565b60405180910390f35b34801561027857600080fd5b50610293600480360381019061028e91906131d3565b610918565b005b3480156102a157600080fd5b506102aa610a2f565b6040516102b79190613222565b60405180910390f35b6102da60048036038101906102d5919061323d565b610a3c565b005b3480156102e857600080fd5b5061030360048036038101906102fe919061327d565b610bb8565b005b61031f600480360381019061031a919061311e565b610c18565b005b34801561032d57600080fd5b50610348600480360381019061034391906131d3565b610d80565b6040516103559190613222565b60405180910390f35b34801561036a57600080fd5b506103856004803603810190610380919061327d565b610e25565b005b34801561039357600080fd5b506103ae60048036038101906103a99190613405565b610e45565b6040516103bb9190613012565b60405180910390f35b3480156103d057600080fd5b506103eb60048036038101906103e6919061311e565b610e81565b6040516103f89190613222565b60405180910390f35b34801561040d57600080fd5b506104286004803603810190610423919061311e565b610ef2565b604051610435919061318c565b60405180910390f35b34801561044a57600080fd5b506104656004803603810190610460919061311e565b610fa3565b60405161047291906134d0565b60405180910390f35b34801561048757600080fd5b506104a2600480360381019061049d91906134eb565b611055565b6040516104af9190613222565b60405180910390f35b3480156104c457600080fd5b506104cd61110c565b6040516104da919061361c565b60405180910390f35b3480156104ef57600080fd5b506104f8611270565b005b34801561050657600080fd5b50610521600480360381019061051c919061311e565b6112f8565b005b34801561052f57600080fd5b506105386113c1565b604051610545919061318c565b60405180910390f35b34801561055a57600080fd5b506105636113eb565b60405161057091906130c6565b60405180910390f35b34801561058557600080fd5b506105a0600480360381019061059b919061366a565b61147d565b005b3480156105ae57600080fd5b506105c960048036038101906105c4919061374b565b611493565b005b6105e560048036038101906105e091906137ce565b6114f5565b6040516105f29190613222565b60405180910390f35b34801561060757600080fd5b50610610611605565b60405161061d9190613222565b60405180910390f35b34801561063257600080fd5b5061064d6004803603810190610648919061311e565b61160b565b60405161065a91906130c6565b60405180910390f35b34801561066f57600080fd5b5061067861175c565b6040516106859190613222565b60405180910390f35b34801561069a57600080fd5b506106b560048036038101906106b0919061382a565b61176d565b6040516106c29190613012565b60405180910390f35b3480156106d757600080fd5b506106e0611801565b6040516106ed919061361c565b60405180910390f35b34801561070257600080fd5b5061071d600480360381019061071891906134eb565b61199b565b005b60007f80ac58cd000000000000000000000000000000000000000000000000000000007bffffffffffffffffffffffffffffffffffffffffffffffffffffffff1916827bffffffffffffffffffffffffffffffffffffffffffffffffffffffff191614806107ea57507f5b5e139f000000000000000000000000000000000000000000000000000000007bffffffffffffffffffffffffffffffffffffffffffffffffffffffff1916827bffffffffffffffffffffffffffffffffffffffffffffffffffffffff1916145b806107fa57506107f982611a92565b5b9050919050565b60606000805461081090613899565b80601f016020809104026020016040519081016040528092919081815260200182805461083c90613899565b80156108895780601f1061085e57610100808354040283529160200191610889565b820191906000526020600020905b81548152906001019060200180831161086c57829003601f168201915b5050505050905090565b600061089e82611afc565b6108dd576040517f08c379a00000000000000000000000000000000000000000000000000000000081526004016108d49061393c565b60405180910390fd5b6004600083815260200190815260200160002060009054906101000a900473ffffffffffffffffffffffffffffffffffffffff169050919050565b600061092382610ef2565b90508073ffffffffffffffffffffffffffffffffffffffff168373ffffffffffffffffffffffffffffffffffffffff1603610993576040517f08c379a000000000000000000000000000000000000000000000000000000000815260040161098a906139ce565b60405180910390fd5b8073ffffffffffffffffffffffffffffffffffffffff166109b2611b68565b73ffffffffffffffffffffffffffffffffffffffff1614806109e157506109e0816109db611b68565b61176d565b5b610a20576040517f08c379a0000000000000000000000000000000000000000000000000000000008152600401610a1790613a60565b60405180910390fd5b610a2a8383611b70565b505050565b6000600b80549050905090565b3373ffffffffffffffffffffffffffffffffffffffff16610a5c83610ef2565b73ffffffffffffffffffffffffffffffffffffffff1614610ab2576040517f08c379a0000000000000000000000000000000000000000000000000000000008152600401610aa990613acc565b60405180910390fd5b60001515600e600084815260200190815260200160002060020160149054906101000a900460ff16151514610b1c576040517f08c379a0000000000000000000000000000000000000000000000000000000008152600401610b1390613b38565b60405180910390fd5b6008543414610b60576040517f08c379a0000000000000000000000000000000000000000000000000000000008152600401610b5790613bca565b60405180910390fd5b6001600e600084815260200190815260200160002060020160146101000a81548160ff02191690831515021790555080600e600084815260200190815260200160002060010181905550610bb46009611c29565b5050565b610bc9610bc3611b68565b82611c3f565b610c08576040517f08c379a0000000000000000000000000000000000000000000000000000000008152600401610bff90613c5c565b60405180910390fd5b610c13838383611d1d565b505050565b6000600e60008381526020019081526020016000206001015490506000610c3e83610ef2565b90508073ffffffffffffffffffffffffffffffffffffffff163373ffffffffffffffffffffffffffffffffffffffff1603610cae576040517f08c379a0000000000000000000000000000000000000000000000000000000008152600401610ca590613cc8565b60405180910390fd5b813414610cf0576040517f08c379a0000000000000000000000000000000000000000000000000000000008152600401610ce790613d34565b60405180910390fd5b6000600e600085815260200190815260200160002060020160146101000a81548160ff021916908315150217905550610d296009611f83565b610d34813385611d1d565b8073ffffffffffffffffffffffffffffffffffffffff166108fc349081150290604051600060405180830381858888f19350505050158015610d7a573d6000803e3d6000fd5b50505050565b6000610d8b83611055565b8210610dcc576040517f08c379a0000000000000000000000000000000000000000000000000000000008152600401610dc390613da0565b60405180910390fd5b600f60008473ffffffffffffffffffffffffffffffffffffffff1673ffffffffffffffffffffffffffffffffffffffff168152602001908152602001600020600083815260200190815260200160002054905092915050565b610e4083838360405180602001604052806000815250611493565b505050565b600060011515600d83604051610e5b9190613dfc565b908152602001604051809103902060009054906101000a900460ff161515149050919050565b6000610e8b610a2f565b8210610ecc576040517f08c379a0000000000000000000000000000000000000000000000000000000008152600401610ec390613da0565b60405180910390fd5b600b8281548110610ee057610edf613e13565b5b90600052602060002001549050919050565b6000806002600084815260200190815260200160002060009054906101000a900473ffffffffffffffffffffffffffffffffffffffff169050600073ffffffffffffffffffffffffffffffffffffffff168173ffffffffffffffffffffffffffffffffffffffff1603610f9a576040517f08c379a0000000000000000000000000000000000000000000000000000000008152600401610f9190613eb4565b60405180910390fd5b80915050919050565b610fab612e7b565b600e600083815260200190815260200160002060405180608001604052908160008201548152602001600182015481526020016002820160009054906101000a900473ffffffffffffffffffffffffffffffffffffffff1673ffffffffffffffffffffffffffffffffffffffff1673ffffffffffffffffffffffffffffffffffffffff1681526020016002820160149054906101000a900460ff1615151515815250509050919050565b60008073ffffffffffffffffffffffffffffffffffffffff168273ffffffffffffffffffffffffffffffffffffffff16036110c5576040517f08c379a00000000000000000000000000000000000000000000000000000000081526004016110bc90613f46565b60405180910390fd5b600360008373ffffffffffffffffffffffffffffffffffffffff1673ffffffffffffffffffffffffffffffffffffffff168152602001908152602001600020549050919050565b6060600061111933611055565b905060008167ffffffffffffffff811115611137576111366132da565b5b60405190808252806020026020018201604052801561117057816020015b61115d612e7b565b8152602001906001900390816111555790505b50905060005b8281101561126757600061118a3383610d80565b90506000600e600083815260200190815260200160002090508060405180608001604052908160008201548152602001600182015481526020016002820160009054906101000a900473ffffffffffffffffffffffffffffffffffffffff1673ffffffffffffffffffffffffffffffffffffffff1673ffffffffffffffffffffffffffffffffffffffff1681526020016002820160149054906101000a900460ff16151515158152505084848151811061124757611246613e13565b5b60200260200101819052505050808061125f90613f95565b915050611176565b50809250505090565b611278611b68565b73ffffffffffffffffffffffffffffffffffffffff166112966113c1565b73ffffffffffffffffffffffffffffffffffffffff16146112ec576040517f08c379a00000000000000000000000000000000000000000000000000000000081526004016112e390614029565b60405180910390fd5b6112f66000611fdf565b565b611300611b68565b73ffffffffffffffffffffffffffffffffffffffff1661131e6113c1565b73ffffffffffffffffffffffffffffffffffffffff1614611374576040517f08c379a000000000000000000000000000000000000000000000000000000000815260040161136b90614029565b60405180910390fd5b600081116113b7576040517f08c379a00000000000000000000000000000000000000000000000000000000081526004016113ae90614095565b60405180910390fd5b8060088190555050565b6000600760009054906101000a900473ffffffffffffffffffffffffffffffffffffffff16905090565b6060600180546113fa90613899565b80601f016020809104026020016040519081016040528092919081815260200182805461142690613899565b80156114735780601f1061144857610100808354040283529160200191611473565b820191906000526020600020905b81548152906001019060200180831161145657829003601f168201915b5050505050905090565b61148f611488611b68565b83836120a5565b5050565b6114a461149e611b68565b83611c3f565b6114e3576040517f08c379a00000000000000000000000000000000000000000000000000000000081526004016114da90613c5c565b60405180910390fd5b6114ef84848484612211565b50505050565b600061150083610e45565b15611540576040517f08c379a000000000000000000000000000000000000000000000000000000000815260040161153790614101565b60405180910390fd5b6008543414611584576040517f08c379a000000000000000000000000000000000000000000000000000000000815260040161157b90613bca565b60405180910390fd5b61158e600a611c29565b6115986009611c29565b60006115a4600a61226d565b90506115b0338261227b565b6115ba8185612299565b6115c4818461230d565b6001600d856040516115d69190613dfc565b908152602001604051809103902060006101000a81548160ff0219169083151502179055508091505092915050565b60085481565b606061161682611afc565b611655576040517f08c379a000000000000000000000000000000000000000000000000000000000815260040161164c90614193565b60405180910390fd5b600060066000848152602001908152602001600020805461167590613899565b80601f01602080910402602001604051908101604052809291908181526020018280546116a190613899565b80156116ee5780601f106116c3576101008083540402835291602001916116ee565b820191906000526020600020905b8154815290600101906020018083116116d157829003601f168201915b5050505050905060006116ff61245d565b90506000815103611714578192505050611757565b6000825111156117495780826040516020016117319291906141b3565b60405160208183030381529060405292505050611757565b61175284612474565b925050505b919050565b6000611768600961226d565b905090565b6000600560008473ffffffffffffffffffffffffffffffffffffffff1673ffffffffffffffffffffffffffffffffffffffff16815260200190815260200160002060008373ffffffffffffffffffffffffffffffffffffffff1673ffffffffffffffffffffffffffffffffffffffff16815260200190815260200160002060009054906101000a900460ff16905092915050565b6060600061180d610a2f565b905060008061181c600961226d565b67ffffffffffffffff811115611835576118346132da565b5b60405190808252806020026020018201604052801561186e57816020015b61185b612e7b565b8152602001906001900390816118535790505b50905060005b8381101561199157600061188782610e81565b90506000600e60008381526020019081526020016000209050600115158160020160149054906101000a900460ff1615150361197c578060405180608001604052908160008201548152602001600182015481526020016002820160009054906101000a900473ffffffffffffffffffffffffffffffffffffffff1673ffffffffffffffffffffffffffffffffffffffff1673ffffffffffffffffffffffffffffffffffffffff1681526020016002820160149054906101000a900460ff16151515158152505084868151811061196157611960613e13565b5b602002602001018190525060018561197991906141d7565b94505b5050808061198990613f95565b915050611874565b5080935050505090565b6119a3611b68565b73ffffffffffffffffffffffffffffffffffffffff166119c16113c1565b73ffffffffffffffffffffffffffffffffffffffff1614611a17576040517f08c379a0000000000000000000000000000000000000000000000000000000008152600401611a0e90614029565b60405180910390fd5b600073ffffffffffffffffffffffffffffffffffffffff168173ffffffffffffffffffffffffffffffffffffffff1603611a86576040517f08c379a0000000000000000000000000000000000000000000000000000000008152600401611a7d9061429f565b60405180910390fd5b611a8f81611fdf565b50565b60007f01ffc9a7000000000000000000000000000000000000000000000000000000007bffffffffffffffffffffffffffffffffffffffffffffffffffffffff1916827bffffffffffffffffffffffffffffffffffffffffffffffffffffffff1916149050919050565b60008073ffffffffffffffffffffffffffffffffffffffff166002600084815260200190815260200160002060009054906101000a900473ffffffffffffffffffffffffffffffffffffffff1673ffffffffffffffffffffffffffffffffffffffff1614159050919050565b600033905090565b816004600083815260200190815260200160002060006101000a81548173ffffffffffffffffffffffffffffffffffffffff021916908373ffffffffffffffffffffffffffffffffffffffff160217905550808273ffffffffffffffffffffffffffffffffffffffff16611be383610ef2565b73ffffffffffffffffffffffffffffffffffffffff167f8c5be1e5ebec7d5bd14f71427d1e84f3dd0314c0f7b2291e5b200ac8c7c3b92560405160405180910390a45050565b6001816000016000828254019250508190555050565b6000611c4a82611afc565b611c89576040517f08c379a0000000000000000000000000000000000000000000000000000000008152600401611c8090614331565b60405180910390fd5b6000611c9483610ef2565b90508073ffffffffffffffffffffffffffffffffffffffff168473ffffffffffffffffffffffffffffffffffffffff161480611cd65750611cd5818561176d565b5b80611d1457508373ffffffffffffffffffffffffffffffffffffffff16611cfc84610893565b73ffffffffffffffffffffffffffffffffffffffff16145b91505092915050565b8273ffffffffffffffffffffffffffffffffffffffff16611d3d82610ef2565b73ffffffffffffffffffffffffffffffffffffffff1614611d93576040517f08c379a0000000000000000000000000000000000000000000000000000000008152600401611d8a906143c3565b60405180910390fd5b600073ffffffffffffffffffffffffffffffffffffffff168273ffffffffffffffffffffffffffffffffffffffff1603611e02576040517f08c379a0000000000000000000000000000000000000000000000000000000008152600401611df990614455565b60405180910390fd5b611e0d83838361251b565b611e18600082611b70565b6001600360008573ffffffffffffffffffffffffffffffffffffffff1673ffffffffffffffffffffffffffffffffffffffff1681526020019081526020016000206000828254611e689190614475565b925050819055506001600360008473ffffffffffffffffffffffffffffffffffffffff1673ffffffffffffffffffffffffffffffffffffffff1681526020019081526020016000206000828254611ebf91906141d7565b92505081905550816002600083815260200190815260200160002060006101000a81548173ffffffffffffffffffffffffffffffffffffffff021916908373ffffffffffffffffffffffffffffffffffffffff160217905550808273ffffffffffffffffffffffffffffffffffffffff168473ffffffffffffffffffffffffffffffffffffffff167fddf252ad1be2c89b69c2b068fc378daa952ba7f163c4a11628f55a4df523b3ef60405160405180910390a4611f7e83838361262d565b505050565b60008160000154905060008111611fcf576040517f08c379a0000000000000000000000000000000000000000000000000000000008152600401611fc6906144f5565b60405180910390fd5b6001810382600001819055505050565b6000600760009054906101000a900473ffffffffffffffffffffffffffffffffffffffff16905081600760006101000a81548173ffffffffffffffffffffffffffffffffffffffff021916908373ffffffffffffffffffffffffffffffffffffffff1602179055508173ffffffffffffffffffffffffffffffffffffffff168173ffffffffffffffffffffffffffffffffffffffff167f8be0079c531659141344cd1fd0a4f28419497f9722a3daafe3b4186f6b6457e060405160405180910390a35050565b8173ffffffffffffffffffffffffffffffffffffffff168373ffffffffffffffffffffffffffffffffffffffff1603612113576040517f08c379a000000000000000000000000000000000000000000000000000000000815260040161210a90614561565b60405180910390fd5b80600560008573ffffffffffffffffffffffffffffffffffffffff1673ffffffffffffffffffffffffffffffffffffffff16815260200190815260200160002060008473ffffffffffffffffffffffffffffffffffffffff1673ffffffffffffffffffffffffffffffffffffffff16815260200190815260200160002060006101000a81548160ff0219169083151502179055508173ffffffffffffffffffffffffffffffffffffffff168373ffffffffffffffffffffffffffffffffffffffff167f17307eab39ab6107e8899845ad3d59bd9653f200f220920489ca2b5937696c31836040516122049190613012565b60405180910390a3505050565b61221c848484611d1d565b61222884848484612632565b612267576040517f08c379a000000000000000000000000000000000000000000000000000000000815260040161225e906145f3565b60405180910390fd5b50505050565b600081600001549050919050565b6122958282604051806020016040528060008152506127b9565b5050565b6122a282611afc565b6122e1576040517f08c379a00000000000000000000000000000000000000000000000000000000081526004016122d890614685565b60405180910390fd5b80600660008481526020019081526020016000209080519060200190612308929190612ebb565b505050565b60008111612350576040517f08c379a000000000000000000000000000000000000000000000000000000000815260040161234790614095565b60405180910390fd5b60405180608001604052808381526020018281526020013373ffffffffffffffffffffffffffffffffffffffff16815260200160011515815250600e6000848152602001908152602001600020600082015181600001556020820151816001015560408201518160020160006101000a81548173ffffffffffffffffffffffffffffffffffffffff021916908373ffffffffffffffffffffffffffffffffffffffff16021790555060608201518160020160146101000a81548160ff0219169083151502179055509050507f470031062672bc0246e132c723a729c4676710ec663a29e86c88678032daddea828233600160405161245194939291906146a5565b60405180910390a15050565b606060405180602001604052806000815250905090565b606061247f82611afc565b6124be576040517f08c379a00000000000000000000000000000000000000000000000000000000081526004016124b59061475c565b60405180910390fd5b60006124c861245d565b905060008151116124e85760405180602001604052806000815250612513565b806124f284612814565b6040516020016125039291906141b3565b6040516020818303038152906040525b915050919050565b612526838383612974565b600073ffffffffffffffffffffffffffffffffffffffff168373ffffffffffffffffffffffffffffffffffffffff16036125685761256381612979565b6125a7565b8173ffffffffffffffffffffffffffffffffffffffff168373ffffffffffffffffffffffffffffffffffffffff16146125a6576125a583826129c2565b5b5b600073ffffffffffffffffffffffffffffffffffffffff168273ffffffffffffffffffffffffffffffffffffffff16036125e9576125e481612b2f565b612628565b8273ffffffffffffffffffffffffffffffffffffffff168273ffffffffffffffffffffffffffffffffffffffff1614612627576126268282612c00565b5b5b505050565b505050565b60006126538473ffffffffffffffffffffffffffffffffffffffff16612c7f565b156127ac578373ffffffffffffffffffffffffffffffffffffffff1663150b7a0261267c611b68565b8786866040518563ffffffff1660e01b815260040161269e94939291906147d1565b6020604051808303816000875af19250505080156126da57506040513d601f19601f820116820180604052508101906126d79190614832565b60015b61275c573d806000811461270a576040519150601f19603f3d011682016040523d82523d6000602084013e61270f565b606091505b506000815103612754576040517f08c379a000000000000000000000000000000000000000000000000000000000815260040161274b906145f3565b60405180910390fd5b805181602001fd5b63150b7a0260e01b7bffffffffffffffffffffffffffffffffffffffffffffffffffffffff1916817bffffffffffffffffffffffffffffffffffffffffffffffffffffffff1916149150506127b1565b600190505b949350505050565b6127c38383612ca2565b6127d06000848484612632565b61280f576040517f08c379a0000000000000000000000000000000000000000000000000000000008152600401612806906145f3565b60405180910390fd5b505050565b60606000820361285b576040518060400160405280600181526020017f3000000000000000000000000000000000000000000000000000000000000000815250905061296f565b600082905060005b6000821461288d57808061287690613f95565b915050600a82612886919061488e565b9150612863565b60008167ffffffffffffffff8111156128a9576128a86132da565b5b6040519080825280601f01601f1916602001820160405280156128db5781602001600182028036833780820191505090505b5090505b60008514612968576001826128f49190614475565b9150600a8561290391906148bf565b603061290f91906141d7565b60f81b81838151811061292557612924613e13565b5b60200101907effffffffffffffffffffffffffffffffffffffffffffffffffffffffffffff1916908160001a905350600a85612961919061488e565b94506128df565b8093505050505b919050565b505050565b600b80549050600c600083815260200190815260200160002081905550600b81908060018154018082558091505060019003906000526020600020016000909190919091505550565b600060016129cf84611055565b6129d99190614475565b9050600060106000848152602001908152602001600020549050818114612abe576000600f60008673ffffffffffffffffffffffffffffffffffffffff1673ffffffffffffffffffffffffffffffffffffffff168152602001908152602001600020600084815260200190815260200160002054905080600f60008773ffffffffffffffffffffffffffffffffffffffff1673ffffffffffffffffffffffffffffffffffffffff168152602001908152602001600020600084815260200190815260200160002081905550816010600083815260200190815260200160002081905550505b6010600084815260200190815260200160002060009055600f60008573ffffffffffffffffffffffffffffffffffffffff1673ffffffffffffffffffffffffffffffffffffffff16815260200190815260200160002060008381526020019081526020016000206000905550505050565b60006001600b80549050612b439190614475565b90506000600c60008481526020019081526020016000205490506000600b8381548110612b7357612b72613e13565b5b9060005260206000200154905080600b8381548110612b9557612b94613e13565b5b906000526020600020018190555081600c600083815260200190815260200160002081905550600c600085815260200190815260200160002060009055600b805480612be457612be36148f0565b5b6001900381819060005260206000200160009055905550505050565b6000612c0b83611055565b905081600f60008573ffffffffffffffffffffffffffffffffffffffff1673ffffffffffffffffffffffffffffffffffffffff168152602001908152602001600020600083815260200190815260200160002081905550806010600084815260200190815260200160002081905550505050565b6000808273ffffffffffffffffffffffffffffffffffffffff163b119050919050565b600073ffffffffffffffffffffffffffffffffffffffff168273ffffffffffffffffffffffffffffffffffffffff1603612d11576040517f08c379a0000000000000000000000000000000000000000000000000000000008152600401612d089061496b565b60405180910390fd5b612d1a81611afc565b15612d5a576040517f08c379a0000000000000000000000000000000000000000000000000000000008152600401612d51906149d7565b60405180910390fd5b612d666000838361251b565b6001600360008473ffffffffffffffffffffffffffffffffffffffff1673ffffffffffffffffffffffffffffffffffffffff1681526020019081526020016000206000828254612db691906141d7565b92505081905550816002600083815260200190815260200160002060006101000a81548173ffffffffffffffffffffffffffffffffffffffff021916908373ffffffffffffffffffffffffffffffffffffffff160217905550808273ffffffffffffffffffffffffffffffffffffffff16600073ffffffffffffffffffffffffffffffffffffffff167fddf252ad1be2c89b69c2b068fc378daa952ba7f163c4a11628f55a4df523b3ef60405160405180910390a4612e776000838361262d565b5050565b60405180608001604052806000815260200160008152602001600073ffffffffffffffffffffffffffffffffffffffff1681526020016000151581525090565b828054612ec790613899565b90600052602060002090601f016020900481019282612ee95760008555612f30565b82601f10612f0257805160ff1916838001178555612f30565b82800160010185558215612f30579182015b82811115612f2f578251825591602001919060010190612f14565b5b509050612f3d9190612f41565b5090565b5b80821115612f5a576000816000905550600101612f42565b5090565b6000604051905090565b600080fd5b600080fd5b60007fffffffff0000000000000000000000000000000000000000000000000000000082169050919050565b612fa781612f72565b8114612fb257600080fd5b50565b600081359050612fc481612f9e565b92915050565b600060208284031215612fe057612fdf612f68565b5b6000612fee84828501612fb5565b91505092915050565b60008115159050919050565b61300c81612ff7565b82525050565b60006020820190506130276000830184613003565b92915050565b600081519050919050565b600082825260208201905092915050565b60005b8381101561306757808201518184015260208101905061304c565b83811115613076576000848401525b50505050565b6000601f19601f8301169050919050565b60006130988261302d565b6130a28185613038565b93506130b2818560208601613049565b6130bb8161307c565b840191505092915050565b600060208201905081810360008301526130e0818461308d565b905092915050565b6000819050919050565b6130fb816130e8565b811461310657600080fd5b50565b600081359050613118816130f2565b92915050565b60006020828403121561313457613133612f68565b5b600061314284828501613109565b91505092915050565b600073ffffffffffffffffffffffffffffffffffffffff82169050919050565b60006131768261314b565b9050919050565b6131868161316b565b82525050565b60006020820190506131a1600083018461317d565b92915050565b6131b08161316b565b81146131bb57600080fd5b50565b6000813590506131cd816131a7565b92915050565b600080604083850312156131ea576131e9612f68565b5b60006131f8858286016131be565b925050602061320985828601613109565b9150509250929050565b61321c816130e8565b82525050565b60006020820190506132376000830184613213565b92915050565b6000806040838503121561325457613253612f68565b5b600061326285828601613109565b925050602061327385828601613109565b9150509250929050565b60008060006060848603121561329657613295612f68565b5b60006132a4868287016131be565b93505060206132b5868287016131be565b92505060406132c686828701613109565b9150509250925092565b600080fd5b600080fd5b7f4e487b7100000000000000000000000000000000000000000000000000000000600052604160045260246000fd5b6133128261307c565b810181811067ffffffffffffffff82111715613331576133306132da565b5b80604052505050565b6000613344612f5e565b90506133508282613309565b919050565b600067ffffffffffffffff8211156133705761336f6132da565b5b6133798261307c565b9050602081019050919050565b82818337600083830152505050565b60006133a86133a384613355565b61333a565b9050828152602081018484840111156133c4576133c36132d5565b5b6133cf848285613386565b509392505050565b600082601f8301126133ec576133eb6132d0565b5b81356133fc848260208601613395565b91505092915050565b60006020828403121561341b5761341a612f68565b5b600082013567ffffffffffffffff81111561343957613438612f6d565b5b613445848285016133d7565b91505092915050565b613457816130e8565b82525050565b6134668161316b565b82525050565b61347581612ff7565b82525050565b608082016000820151613491600085018261344e565b5060208201516134a4602085018261344e565b5060408201516134b7604085018261345d565b5060608201516134ca606085018261346c565b50505050565b60006080820190506134e5600083018461347b565b92915050565b60006020828403121561350157613500612f68565b5b600061350f848285016131be565b91505092915050565b600081519050919050565b600082825260208201905092915050565b6000819050602082019050919050565b60808201600082015161355a600085018261344e565b50602082015161356d602085018261344e565b506040820151613580604085018261345d565b506060820151613593606085018261346c565b50505050565b60006135a58383613544565b60808301905092915050565b6000602082019050919050565b60006135c982613518565b6135d38185613523565b93506135de83613534565b8060005b8381101561360f5781516135f68882613599565b9750613601836135b1565b9250506001810190506135e2565b5085935050505092915050565b6000602082019050818103600083015261363681846135be565b905092915050565b61364781612ff7565b811461365257600080fd5b50565b6000813590506136648161363e565b92915050565b6000806040838503121561368157613680612f68565b5b600061368f858286016131be565b92505060206136a085828601613655565b9150509250929050565b600067ffffffffffffffff8211156136c5576136c46132da565b5b6136ce8261307c565b9050602081019050919050565b60006136ee6136e9846136aa565b61333a565b90508281526020810184848401111561370a576137096132d5565b5b613715848285613386565b509392505050565b600082601f830112613732576137316132d0565b5b81356137428482602086016136db565b91505092915050565b6000806000806080858703121561376557613764612f68565b5b6000613773878288016131be565b9450506020613784878288016131be565b935050604061379587828801613109565b925050606085013567ffffffffffffffff8111156137b6576137b5612f6d565b5b6137c28782880161371d565b91505092959194509250565b600080604083850312156137e5576137e4612f68565b5b600083013567ffffffffffffffff81111561380357613802612f6d565b5b61380f858286016133d7565b925050602061382085828601613109565b9150509250929050565b6000806040838503121561384157613840612f68565b5b600061384f858286016131be565b9250506020613860858286016131be565b9150509250929050565b7f4e487b7100000000000000000000000000000000000000000000000000000000600052602260045260246000fd5b600060028204905060018216806138b157607f821691505b6020821081036138c4576138c361386a565b5b50919050565b7f4552433732313a20617070726f76656420717565727920666f72206e6f6e657860008201527f697374656e7420746f6b656e0000000000000000000000000000000000000000602082015250565b6000613926602c83613038565b9150613931826138ca565b604082019050919050565b6000602082019050818103600083015261395581613919565b9050919050565b7f4552433732313a20617070726f76616c20746f2063757272656e74206f776e6560008201527f7200000000000000000000000000000000000000000000000000000000000000602082015250565b60006139b8602183613038565b91506139c38261395c565b604082019050919050565b600060208201905081810360008301526139e7816139ab565b9050919050565b7f4552433732313a20617070726f76652063616c6c6572206973206e6f74206f7760008201527f6e6572206e6f7220617070726f76656420666f7220616c6c0000000000000000602082015250565b6000613a4a603883613038565b9150613a55826139ee565b604082019050919050565b60006020820190508181036000830152613a7981613a3d565b9050919050565b7f596f7520617265206e6f74206f776e6572206f662074686973206e6674000000600082015250565b6000613ab6601d83613038565b9150613ac182613a80565b602082019050919050565b60006020820190508181036000830152613ae581613aa9565b9050919050565b7f4974656d20697320616c7265616479206f6e2073616c65000000000000000000600082015250565b6000613b22601783613038565b9150613b2d82613aec565b602082019050919050565b60006020820190508181036000830152613b5181613b15565b9050919050565b7f5072696365206d75737420626520657175616c20746f206c697374696e67207060008201527f7269636500000000000000000000000000000000000000000000000000000000602082015250565b6000613bb4602483613038565b9150613bbf82613b58565b604082019050919050565b60006020820190508181036000830152613be381613ba7565b9050919050565b7f4552433732313a207472616e736665722063616c6c6572206973206e6f74206f60008201527f776e6572206e6f7220617070726f766564000000000000000000000000000000602082015250565b6000613c46603183613038565b9150613c5182613bea565b604082019050919050565b60006020820190508181036000830152613c7581613c39565b9050919050565b7f596f7520616c6572616479206f776e2074686973204e46540000000000000000600082015250565b6000613cb2601883613038565b9150613cbd82613c7c565b602082019050919050565b60006020820190508181036000830152613ce181613ca5565b9050919050565b7f506c65617365207375626d6974207468652061736b696e672070726963650000600082015250565b6000613d1e601e83613038565b9150613d2982613ce8565b602082019050919050565b60006020820190508181036000830152613d4d81613d11565b9050919050565b7f496e646578206f7574206f6620626f756e647300000000000000000000000000600082015250565b6000613d8a601383613038565b9150613d9582613d54565b602082019050919050565b60006020820190508181036000830152613db981613d7d565b9050919050565b600081905092915050565b6000613dd68261302d565b613de08185613dc0565b9350613df0818560208601613049565b80840191505092915050565b6000613e088284613dcb565b915081905092915050565b7f4e487b7100000000000000000000000000000000000000000000000000000000600052603260045260246000fd5b7f4552433732313a206f776e657220717565727920666f72206e6f6e657869737460008201527f656e7420746f6b656e0000000000000000000000000000000000000000000000602082015250565b6000613e9e602983613038565b9150613ea982613e42565b604082019050919050565b60006020820190508181036000830152613ecd81613e91565b9050919050565b7f4552433732313a2062616c616e636520717565727920666f7220746865207a6560008201527f726f206164647265737300000000000000000000000000000000000000000000602082015250565b6000613f30602a83613038565b9150613f3b82613ed4565b604082019050919050565b60006020820190508181036000830152613f5f81613f23565b9050919050565b7f4e487b7100000000000000000000000000000000000000000000000000000000600052601160045260246000fd5b6000613fa0826130e8565b91507fffffffffffffffffffffffffffffffffffffffffffffffffffffffffffffffff8203613fd257613fd1613f66565b5b600182019050919050565b7f4f776e61626c653a2063616c6c6572206973206e6f7420746865206f776e6572600082015250565b6000614013602083613038565b915061401e82613fdd565b602082019050919050565b6000602082019050818103600083015261404281614006565b9050919050565b7f5072696365206d757374206265206174206c6561737420312077656900000000600082015250565b600061407f601c83613038565b915061408a82614049565b602082019050919050565b600060208201905081810360008301526140ae81614072565b9050919050565b7f546f6b656e2055524920616c7265616479206578697374730000000000000000600082015250565b60006140eb601883613038565b91506140f6826140b5565b602082019050919050565b6000602082019050818103600083015261411a816140de565b9050919050565b7f45524337323155524953746f726167653a2055524920717565727920666f722060008201527f6e6f6e6578697374656e7420746f6b656e000000000000000000000000000000602082015250565b600061417d603183613038565b915061418882614121565b604082019050919050565b600060208201905081810360008301526141ac81614170565b9050919050565b60006141bf8285613dcb565b91506141cb8284613dcb565b91508190509392505050565b60006141e2826130e8565b91506141ed836130e8565b9250827fffffffffffffffffffffffffffffffffffffffffffffffffffffffffffffffff0382111561422257614221613f66565b5b828201905092915050565b7f4f776e61626c653a206e6577206f776e657220697320746865207a65726f206160008201527f6464726573730000000000000000000000000000000000000000000000000000602082015250565b6000614289602683613038565b91506142948261422d565b604082019050919050565b600060208201905081810360008301526142b88161427c565b9050919050565b7f4552433732313a206f70657261746f7220717565727920666f72206e6f6e657860008201527f697374656e7420746f6b656e0000000000000000000000000000000000000000602082015250565b600061431b602c83613038565b9150614326826142bf565b604082019050919050565b6000602082019050818103600083015261434a8161430e565b9050919050565b7f4552433732313a207472616e736665722066726f6d20696e636f72726563742060008201527f6f776e6572000000000000000000000000000000000000000000000000000000602082015250565b60006143ad602583613038565b91506143b882614351565b604082019050919050565b600060208201905081810360008301526143dc816143a0565b9050919050565b7f4552433732313a207472616e7366657220746f20746865207a65726f2061646460008201527f7265737300000000000000000000000000000000000000000000000000000000602082015250565b600061443f602483613038565b915061444a826143e3565b604082019050919050565b6000602082019050818103600083015261446e81614432565b9050919050565b6000614480826130e8565b915061448b836130e8565b92508282101561449e5761449d613f66565b5b828203905092915050565b7f436f756e7465723a2064656372656d656e74206f766572666c6f770000000000600082015250565b60006144df601b83613038565b91506144ea826144a9565b602082019050919050565b6000602082019050818103600083015261450e816144d2565b9050919050565b7f4552433732313a20617070726f766520746f2063616c6c657200000000000000600082015250565b600061454b601983613038565b915061455682614515565b602082019050919050565b6000602082019050818103600083015261457a8161453e565b9050919050565b7f4552433732313a207472616e7366657220746f206e6f6e20455243373231526560008201527f63656976657220696d706c656d656e7465720000000000000000000000000000602082015250565b60006145dd603283613038565b91506145e882614581565b604082019050919050565b6000602082019050818103600083015261460c816145d0565b9050919050565b7f45524337323155524953746f726167653a2055524920736574206f66206e6f6e60008201527f6578697374656e7420746f6b656e000000000000000000000000000000000000602082015250565b600061466f602e83613038565b915061467a82614613565b604082019050919050565b6000602082019050818103600083015261469e81614662565b9050919050565b60006080820190506146ba6000830187613213565b6146c76020830186613213565b6146d4604083018561317d565b6146e16060830184613003565b95945050505050565b7f4552433732314d657461646174613a2055524920717565727920666f72206e6f60008201527f6e6578697374656e7420746f6b656e0000000000000000000000000000000000602082015250565b6000614746602f83613038565b9150614751826146ea565b604082019050919050565b6000602082019050818103600083015261477581614739565b9050919050565b600081519050919050565b600082825260208201905092915050565b60006147a38261477c565b6147ad8185614787565b93506147bd818560208601613049565b6147c68161307c565b840191505092915050565b60006080820190506147e6600083018761317d565b6147f3602083018661317d565b6148006040830185613213565b81810360608301526148128184614798565b905095945050505050565b60008151905061482c81612f9e565b92915050565b60006020828403121561484857614847612f68565b5b60006148568482850161481d565b91505092915050565b7f4e487b7100000000000000000000000000000000000000000000000000000000600052601260045260246000fd5b6000614899826130e8565b91506148a4836130e8565b9250826148b4576148b361485f565b5b828204905092915050565b60006148ca826130e8565b91506148d5836130e8565b9250826148e5576148e461485f565b5b828206905092915050565b7f4e487b7100000000000000000000000000000000000000000000000000000000600052603160045260246000fd5b7f4552433732313a206d696e7420746f20746865207a65726f2061646472657373600082015250565b6000614955602083613038565b91506149608261491f565b602082019050919050565b6000602082019050818103600083015261498481614948565b9050919050565b7f4552433732313a20746f6b656e20616c7265616479206d696e74656400000000600082015250565b60006149c1601c83613038565b91506149cc8261498b565b602082019050919050565b600060208201905081810360008301526149f0816149b4565b905091905056fea2646970667358221220562b25f5de562939dd34247bf0e643e7825b270c44b12da83f5621c077ae0af564736f6c634300080e0033",
  "immutableReferences": {},
  "source": "// SPDX-License-Identifier: MIT\npragma solidity >=0.4.22 <0.9.0;\n\nimport \"@openzeppelin/contracts/token/ERC721/extensions/ERC721URIStorage.sol\";\nimport \"@openzeppelin/contracts/utils/Counters.sol\";\nimport \"@openzeppelin/contracts/access/Ownable.sol\";\n\ncontract NftMarket is ERC721URIStorage, Ownable {\n  using Counters for Counters.Counter;\n\n  struct NftItem {\n    uint tokenId;\n    uint price;\n    address creator;\n    bool isListed;\n  }\n\n  uint public listingPrice = 0.025 ether;\n  \n  Counters.Counter private _listedItems;\n  Counters.Counter private _tokenIds;\n\n  uint[] private _allNfts;\n  mapping(uint => uint) private _idToNftIndex;\n\n  mapping(string => bool) private _userTokenURIs;\n  mapping(uint => NftItem) private _idToNftItem;\n\n  mapping(address => mapping(uint => uint)) private _ownedTokens;\n  mapping(uint => uint) private _idToOwnedIndex;\n\n  event NftItemCreated(\n    uint tokenId,\n    uint price,\n    address creator,\n    bool isListed\n  );\n\n  constructor() ERC721(\"CreaturesNFT\", \"CNFT\") {}\n\n  function setListingPrice(uint newPrice) external onlyOwner {\n    require(newPrice > 0, \"Price must be at least 1 wei\");\n    listingPrice = newPrice;\n  }\n\n  function buyNft(uint tokenId) public payable {\n    uint price = _idToNftItem[tokenId].price;\n    address owner = ERC721.ownerOf(tokenId);\n\n    require(msg.sender != owner, \"You alerady own this NFT\");\n    require(msg.value == price, \"Please submit the asking price\");\n\n    _idToNftItem[tokenId].isListed = false;\n    _listedItems.decrement();\n\n    _transfer(owner, msg.sender, tokenId);\n    payable(owner).transfer(msg.value);\n  }\n\n  function placeNftOnSale(uint tokenId, uint newPrice) public payable {\n    require(ERC721.ownerOf(tokenId) == msg.sender, \"You are not owner of this nft\");\n    require(_idToNftItem[tokenId].isListed == false, \"Item is already on sale\");\n    require(msg.value == listingPrice, \"Price must be equal to listing price\");\n\n    _idToNftItem[tokenId].isListed = true;\n    _idToNftItem[tokenId].price = newPrice;\n    _listedItems.increment();\n  }\n\n  function _createNftItem(\n    uint tokenId, \n    uint price\n  ) private {\n    require(price > 0, \"Price must be at least 1 wei\");\n\n    _idToNftItem[tokenId] = NftItem(tokenId, price, msg.sender, true);\n\n    emit NftItemCreated(tokenId, price, msg.sender, true);\n  }\n\n  function getNftItem(uint tokenId) public view returns (NftItem memory) {\n    return _idToNftItem[tokenId];\n  }\n\n  function listedItemsCount() public view returns (uint) {\n    return _listedItems.current();\n  } \n\n  function tokenURIExists(string memory tokenURI) public view returns (bool) {\n    return _userTokenURIs[tokenURI] == true;\n  }\n\n  function totalSupply() public view returns (uint) {\n    return _allNfts.length;\n  }\n\n  function tokenByIndex(uint index) public view returns (uint) {\n    require(index < totalSupply(), \"Index out of bounds\");\n    return _allNfts[index];\n  }\n\n  function tokenOfOwnerByIndex(address owner, uint index) public view returns (uint) {\n    require(index < ERC721.balanceOf(owner), \"Index out of bounds\");\n    return _ownedTokens[owner][index];\n  }\n  \n  function getAllNftOnSale() public view returns (NftItem[] memory) {\n    uint allItemsCount = totalSupply();\n    uint currentIndex = 0;\n    NftItem[] memory items = new NftItem[](_listedItems.current());\n\n    for (uint i = 0; i < allItemsCount; i++) {\n      uint tokenId = tokenByIndex(i);\n      NftItem storage item = _idToNftItem[tokenId];\n      if (item.isListed == true) {\n        items[currentIndex] = item;\n        currentIndex += 1;\n      }\n    }\n\n    return items;\n  }\n\n  function getOwnedNfts() public view returns (NftItem[] memory) {\n    uint ownedItemsCount = ERC721.balanceOf(msg.sender);\n    NftItem[] memory items = new NftItem[](ownedItemsCount);\n\n    for (uint i = 0; i < ownedItemsCount; i++) {\n      uint tokenId = tokenOfOwnerByIndex(msg.sender, i);\n      NftItem storage item = _idToNftItem[tokenId];\n      items[i] = item;\n    }\n\n    return items;\n  }\n\n  // function burnToken(uint tokenId) public {\n  //   _burn(tokenId);\n  // }\n\n  function mintToken(string memory tokenURI, uint price) public payable returns(uint) {\n    require(!tokenURIExists(tokenURI), \"Token URI already exists\");\n    require(msg.value == listingPrice, \"Price must be equal to listing price\");\n\n\n    _tokenIds.increment();\n    _listedItems.increment();\n\n    uint newTokenId = _tokenIds.current();\n    \n    _safeMint(msg.sender, newTokenId);\n    _setTokenURI(newTokenId, tokenURI);\n    \n    _createNftItem(newTokenId, price);\n    _userTokenURIs[tokenURI] = true;\n\n    return newTokenId;\n  }\n\n  function _beforeTokenTransfer(\n    address from, \n    address to, \n    uint tokenId\n  ) internal virtual override {\n    super._beforeTokenTransfer(from, to, tokenId);\n\n    if (from == address(0)) {\n      _addtokenToAllTokensEnumeration(tokenId);\n    } else if (from != to) {\n      _removeTokenFromOwnerEnumeration(from, tokenId);\n    }\n\n    if (to == address(0)) {\n      _removeTokenFromAllTokenEnumeration(tokenId);\n    } else if (to != from) {\n      _addTokenToOwnerEnumeration(to, tokenId);\n    }\n  }\n\n  function _addtokenToAllTokensEnumeration(uint tokenId) private {\n    _idToNftIndex[tokenId] = _allNfts.length;\n    _allNfts.push(tokenId);\n  }\n\n  function _addTokenToOwnerEnumeration(address to, uint tokenId) private {\n    uint length = ERC721.balanceOf(to);\n\n    _ownedTokens[to][length] = tokenId;\n    _idToOwnedIndex[tokenId] = length;\n  }\n\n  function _removeTokenFromOwnerEnumeration(address from, uint tokenId) private {\n    uint lastTokenIndex = ERC721.balanceOf(from) - 1;\n    uint tokenIndex = _idToOwnedIndex[tokenId];\n\n    if (tokenIndex != lastTokenIndex) {\n      uint lastTokenId = _ownedTokens[from][lastTokenIndex];\n\n      _ownedTokens[from][tokenIndex] = lastTokenId;\n      _idToOwnedIndex[lastTokenId] = tokenIndex;\n    }\n\n    delete _idToOwnedIndex[tokenId];\n    delete _ownedTokens[from][lastTokenIndex];\n  }\n\n  function _removeTokenFromAllTokenEnumeration(uint tokenId) private {\n    uint lastTokenIndex = _allNfts.length - 1;\n    uint tokenIndex = _idToNftIndex[tokenId];\n    uint lastTokenId = _allNfts[lastTokenIndex];\n\n    _allNfts[tokenIndex] = lastTokenId;\n    _idToNftIndex[lastTokenId] = tokenIndex;\n\n    delete _idToNftIndex[tokenId];\n    _allNfts.pop();\n  }\n}\n",
  "sourcePath": "/Users/faizal/Project/NFT/nft-marketplace/contracts/NftMarket.sol",
  "compiler": {
    "name": "solc",
    "version": "0.8.14+commit.80d49f37.Emscripten.clang"
  },
  "schemaVersion": "3.4.7",
  "updatedAt": "2022-06-12T07:31:02.853Z",
  "networkType": "ethereum",
  "devdoc": {
    "kind": "dev",
    "methods": {
      "approve(address,uint256)": {
        "details": "See {IERC721-approve}."
      },
      "balanceOf(address)": {
        "details": "See {IERC721-balanceOf}."
      },
      "getApproved(uint256)": {
        "details": "See {IERC721-getApproved}."
      },
      "isApprovedForAll(address,address)": {
        "details": "See {IERC721-isApprovedForAll}."
      },
      "name()": {
        "details": "See {IERC721Metadata-name}."
      },
      "owner()": {
        "details": "Returns the address of the current owner."
      },
      "ownerOf(uint256)": {
        "details": "See {IERC721-ownerOf}."
      },
      "renounceOwnership()": {
        "details": "Leaves the contract without owner. It will not be possible to call `onlyOwner` functions anymore. Can only be called by the current owner. NOTE: Renouncing ownership will leave the contract without an owner, thereby removing any functionality that is only available to the owner."
      },
      "safeTransferFrom(address,address,uint256)": {
        "details": "See {IERC721-safeTransferFrom}."
      },
      "safeTransferFrom(address,address,uint256,bytes)": {
        "details": "See {IERC721-safeTransferFrom}."
      },
      "setApprovalForAll(address,bool)": {
        "details": "See {IERC721-setApprovalForAll}."
      },
      "supportsInterface(bytes4)": {
        "details": "See {IERC165-supportsInterface}."
      },
      "symbol()": {
        "details": "See {IERC721Metadata-symbol}."
      },
      "tokenURI(uint256)": {
        "details": "See {IERC721Metadata-tokenURI}."
      },
      "transferFrom(address,address,uint256)": {
        "details": "See {IERC721-transferFrom}."
      },
      "transferOwnership(address)": {
        "details": "Transfers ownership of the contract to a new account (`newOwner`). Can only be called by the current owner."
      }
    },
    "version": 1
  },
  "userdoc": {
    "kind": "user",
    "methods": {},
    "version": 1
  }
}